:03000000020E17D6
:0C0E1700787FE4F6D8FD75812B020AE616
:1009B4002F202F202F202F202F202F202F202F20BB
:1009C4002F202F202F00202F202F202F202F202FCB
:1009D400202F202F202F202F202F200054656D70D2
:1009E4003A204E2F410048756D693A204E2F410040
:1009F40041796D2044657369676E00544C696D6973
:100A0400743A3330430000000003030F3FFBC0C0BF
:100A1400C0C0C0C0C0C0FB3F0F03030000001EFEE7
:100A2400F6E666666660071FBCF0F0BC1F076066EA
:100A34006666E6F6FE1E0000010F1E78E0E07C1FED
:0E0A4400070101071F7CE0E0781E0F01000093
:100AE600D200120DCB1208E8E4FF120D70E4FF12DB
:100AF6000D0C7BFF3000067A0979B480047A0979F7
:100B0600CA751108E4FDFF120C61750F187510FF08
:100B160075110A75120A7B187D02E4FF120BF97B28
:100B2600FF7A0979E07511107D027F1C120C617B3A
:100B3600FF7A0979EA7511107D047F1C120C617B1E
:100B4600FF7A0979F47511087D077F42120C617BE3
:100B5600FF7A0979FF7511087D07E4FF120C61B26F
:0A0B6600007FC87E00120D56808843
:0C0E230090FE82E030E6F9E054BFF022BF
:090E2F0090FE817401F0020E2313
:0E0DFB0090FE86EFF090FE817402F0020E234F
:090E380090FE817403F0020E2308
:0F0DDD0090FE817404F0120E2390FE87E0FF2237
:0E0E090090FE82E4F090FE817405F0020E234C
:0F0DEC0090FE827401F090FE817405F0020E23D8
:090E410090FE817406F0020E23FC
:100DCB0075BA8090FE8074E0F074C2F090FE82E4FD
:020DDB00F02204
:100003000000000000000000002F000000000700B7
:10001300070000147F147F1400242A7F2A12006231
:1000230064081323003649552250000005030000DD
:1000330000001C224100000041221C000014083E65
:1000430008140008083E0808000000A0600000082B
:10005300080808080000606000000020100804027F
:10006300003E5149453E0000427F4000004261513D
:100073004946002141454B31001814127F100027D7
:1000830045454539003C4A4949300001710905039A
:1000930000364949493600064949291E00003636CB
:1000A300000000005636000000081422410000142E
:1000B300141414140000412214080002015109060B
:1000C30000324959513E007C1211127C007F49498C
:1000D3004936003E41414122007F4141221C007FBD
:1000E30049494941007F09090901003E4149497ACB
:1000F300007F0808087F0000417F41000020404145
:100103003F01007F08142241007F40404040007FB0
:10011300020C027F007F0408107F003E4141413EF4
:10012300007F09090906003E4151215E007F09193C
:1001330029460046494949310001017F0101003F39
:100143004040403F001F2040201F003F4038403FB9
:10015300006314081463000708700807006151491D
:10016300454300007F41410000552A552A550000B0
:1001730041417F000004020102040040404040402E
:10018300000001020400002054545478007F4844C6
:10019300443800384444442000384444487F0038FD
:1001A3005454541800087E0901020018A4A4A47C26
:1001B300007F080404780000447D400000408084F0
:1001C3007D00007F102844000000417F4000007C38
:1001D30004180478007C0804047800384444443844
:1001E30000FC242424180018242418FC007C080490
:1001F300040800485454542000043F444020003C69
:100203004040207C001C2040201C003C4030403CEF
:10021300004428102844001CA0A0A07C004464547F
:100223004C441414141414140000000000000000C3
:100233000000000000000000000000F800000000C3
:10024300000000333000000000100C06100C060004
:10025300000000000000000040C07840C07840006B
:10026300043F04043F040400007088FC08300000CD
:10027300001820FF211E0000F008F000E018000025
:1002830000211C031E211E0000F0088870000000DE
:100293001E2123241927211010160E000000000030
:1002A3000000000000000000000000E0180402004D
:1002B300000000071820400000020418E0000000BE
:1002C3000040201807000000404080F080404000BC
:1002D3000202010F01020200000000F00000000012
:1002E3000101011F010101000000000000000000E6
:1002F30080B070000000000000000000000000005B
:1003030000010101010101010000000000000000E3
:10031300003030000000000000000000806018047E
:10032300006018060100000000E010080810E0005B
:10033300000F102020100F00001010F80000000024
:100343000020203F2020000000700808088870006B
:1003530000302824222130000030088888483000EB
:100363000018202020110E000000C02010F800000B
:1003730000070424243F240000F8088888080800A4
:100383000019212020110E0000E0108888180000B9
:10039300000F112020110E0000380808C83808008B
:1003A3000000003F0000000000708808088870000B
:1003B300001C222121221C0000E010080810E0008C
:1003C3000000312222110F00000000C0C000000015
:1003D300000000303000000000000080000000003A
:1003E3000000806000000000000080402010080032
:1003F30000010204081020004040404040404000FB
:1004030004040404040404000008102040800000D5
:100413000020100804020100007048080808F000DA
:100423000000003036010000C030C828E810E000AA
:100433000718272423140B000000C038E000000035
:10044300203C23020227382008F88888887000009F
:10045300203F202020110E00C03008080808380073
:10046300071820202010080008F808080810E000EA
:10047300203F202020100F0008F88888E80810008B
:10048300203F20202320180008F88888E80810005F
:10049300203F200003000000C03008080838000097
:1004A30007182020221E020008F808000008F80898
:1004B300203F210101213F20000808F8080800001F
:1004C3000020203F2020000000000808F808080052
:1004D300C08080807F00000008F888C028180800CA
:1004E300203F20012638200008F808000000000003
:1004F300203F20202020300008F8F800F8F80800FA
:10050300203F003F003F200008F830C00008F808F3
:10051300203F200007183F00E01008080810E00003
:100523000F10202020100F0008F808080808F0001A
:10053300203F210101010000E01008080810E0003D
:100543000F18242438504F0008F8888888887000D2
:10055300203F2000030C3020007088080808380072
:100563000038202121221C00180808F80808180068
:100573000000203F2000000008F808000008F808E9
:10058300001F202020201F000878880000C838089A
:10059300000007380E010000F80800F80008F80012
:1005A300033C0700073C03000818688080681808AC
:1005B30020302C03032C30200838C800C83808002A
:1005C3000000203F2000000010080808C838080079
:1005D3002038262120201800000000FE020202001D
:1005E3000000007F40404000000C30C000000000CD
:1005F300000000010638C00000020202FE000000F5
:10060300004040407F00000000000402020204009A
:1006130000000000000000000000000000000000D7
:1006230080808080808080800002020400000000BF
:1006330000000000000000000000808080800000B7
:100643000019242222223F2008F8008080000000A5
:10065300003F112020110E00000000808080000068
:10066300000E112020201100000000808088F80077
:10067300000E112020103F200000808080800000A9
:10068300001F222222221300008080F0888888180D
:100693000020203F20200000000080808080800018
:1006A300006B94949493600008F8008080800000AD
:1006B300203F210000203F20008098980000000088
:1006C3000020203F202000000000008098980000B8
:1006D30000C08080807F000008F8000080808000D8
:1006E300203F24022D302000000808F800000000FD
:1006F3000020203F202000008080808080808000B8
:10070300203F20003F20003F808000808080000049
:10071300203F210000203F200000808080800000D7
:10072300001F202020201F00808000808000000008
:1007330080FFA12020110E00000000808080800037
:10074300000E112020A0FF80808080008080800028
:1007530020203F2120000100000080808080800055
:100763000033242424241900008080E080800000CA
:100773000000001F20200000808000000080800017
:10078300001F202020103F20808080000080808078
:1007930000010E3008060100808000800080808008
:1007A3000F300C030C300F0000808000808080002D
:1007B3000020312E0E312000808080000080808058
:1007C30080818E7018060100008080808080800008
:1007D3000021302C2221300000000000807C020226
:1007E30000000000003F404000000000FF00000048
:1007F30000000000FF0000000002027C80000000F7
:100803000040403F00000000000601010202040412
:080813000000000000000000DD
:100D5600EF4E60157D087C07ED1DAA0470011C4A44
:090D660070F6EF1F70EA1E80E731
:010D6F002261
:050CDD0024B0FFE4FD5E
:100CE2008F1E8D1F120E2F7F78120DFB120E38E50C
:100CF2001F60047F408002E4FF120DFB120E38AF2A
:0A0D02001E120DFB120E38020E4106
:100D70008F0CE50C7006FD7FA6120CE2E50CB401A9
:090D800007E4FD7FA7120CE2223A
:100D0C008F0CE50C700DFD7FC8120CE2E4FD7FA189
:100D1C00120CE2E50CB4010EE4FD7FC0120CE2E40F
:070D2C00FD7FA0120CE22282
:100D33008F1D051D051DED120CDDE51D54F0C4547A
:100D43000F4410FFE4FD120CE2E51D540FFFE4FD18
:030D5300020CE2AD
:100DA100E4FD7F8D120CE2E4FD7F14120CE2E4FD00
:050DB1007FAF020CE21F
:100DB600E4FD7F8D120CE2E4FD7F10120CE2E4FDEF
:050DC6007FAE020CE20B
:100CAA00E4F50CE50C120CDDE4FD7F02120CE2E423
:100CBA00FD7F10120CE2E4F50D7D01E4FF120CE257
:100CCA00050DE50DC3948040F0050CE50CC39408AE
:020CDA0040D107
:010CDC0022F5
:04081B008F138D1496
:10081F00E4F517E516C313FDF518E4F519F51AE518
:10082F0016B40808751B00751C068029E5161313EE
:10083F0013541FFF7E00E5165407600590000180DA
:10084F0003900000E5822FFFE5833EFE7C00120A35
:10085F007F8E1B8F1CEB24E0F517AD14AF13120D19
:10086F0033E4F519F51AC3E51A951CE519951B50D4
:10087F0067E518FD7C00AE19AF1A120A91ED4C70A6
:10088F000FE51664086009AD140514AF13120D338C
:10089F00E516B4081075F006E517A42403F582E5F4
:1008AF00F034008013E516B4102E75F010E517A480
:1008BF00242BF582E5F03402F583E582251AF582C3
:1008CF00E5833519F583E493FF7D01120CE2051AD8
:0808DF00E51A70920519808EE4
:0108E70022EE
:040D89008F2BA905FE
:100D8D007F017E00AD0119ED6009AD2B7C00120ACB
:030D9D007F80F163
:010DA0002230
:080B70008F218D228A238B24C2
:100B7800E4F529F52AE526B40803752902E4F527E2
:100B8800E527C395255069C3E525952714FD7F0AF8
:100B9800120D89AC23AD24CFCDCFCECCCE120A9185
:100BA8007C007D0A120A918D28E52A7025E5251416
:100BB800FFE527C39F501BE5287014E526C31325BE
:100BC800298527F0A42521FF8526167B2080187506
:100BD8002A01E526C31325298527F0A42521FFE549
:100BE800282430FB852616AD2212081B0527809085
:010BF80022DA
:0A0C61008F0C8D0D8B0E8A0F891089
:100C6B00E4F512AB0EAA0FA9108512827583001240
:100C7B000A52602AAF1205128F82758300120A5234
:100C8B00FB851116AD0DAF0C12081BE511B4080452
:0E0C9B0074068004E511C313250CF50C80C50A
:010CA9002228
:060BF9008F0C8D0D8B0E28
:100BFF00E4F513F514E50F131313541FFFE50F540A
:100C0F000760047E0180027E00EF2EF50FE4F515DC
:100C1F00E515C3950F503AE515250DFDAF0C120DD7
:100C2F0033E4F516E516C3950E5022AB10AA11A9A1
:100C3F00120514E514AE137002051314F5828E839A
:100C4F00120A52FF7D01120CE2051680D70515809E
:010C5F00BFD5
:010C60002271
:1008E8007FC87E00120D56E4FD7FAE120CE2E4FDD7
:1008F800FF120CE2E4FD7F10120CE2E4FD7F4012CF
:100908000CE2E4FD7F81120CE2E4FD7FCF120CE2E1
:10091800E4FD7FA1120CE2E4FD7FC8120CE2E4FDC5
:100928007FA6120CE2E4FD7FA8120CE2E4FD7F3FF3
:10093800120CE2E4FD7FD3120CE2E4FDFF120CE29C
:10094800E4FD7FD5120CE2E4FD7F80120CE2E4FDA9
:100958007FD9120CE2E4FD7FF1120CE2E4FD7FDAAC
:10096800120CE2E4FD7F12120CE2E4FD7FDB120CB4
:10097800E2E4FD7F40120CE2E4FD7F20120CE2E489
:10098800FD7F02120CE2E4FD7F8D120CE2E4FD7F94
:1009980014120CE2E4FD7FA4120CE2E4FD7FA6121F
:0C09A8000CE2120CAAE4FD7FAF020CE28E
:100A5200BB010CE58229F582E5833AF583E0225059
:100A620006E92582F8E622BBFE06E92582F8E222A3
:0D0A7200E58229F582E5833AF583E49322BD
:100A7F00EF8DF0A4A8F0CF8CF0A428CE8DF0A42E8B
:020A8F00FE2245
:100A9100BC000BBE0029EF8DF084FFADF022E4CC49
:100AA100F875F008EF2FFFEE33FEEC33FCEE9DEC12
:100AB100984005FCEE9DFE0FD5F0E9E4CEFD22ED58
:100AC100F8F5F0EE8420D21CFEADF075F008EF2FA2
:100AD100FFED33FD4007985006D5F0F222C398FD93
:050AE1000FD5F0EA2230
:00000001FF
